:020000040800F2
:100000001808002045020008810200088302000849
:10001000850200088702000889020008000000002D
:100020000000000000000000000000008B0200083B
:100030008D020008000000008F02000891020008F5
:10004000930200089302000893020008930200083C
:10005000930200089302000893020008930200082C
:10006000930200089302000893020008930200081C
:10007000930200089302000893020008930200080C
:1000800093020008930200089302000893020008FC
:1000900093020008930200089302000893020008EC
:1000A00093020008930200089302000893020008DC
:1000B00093020008930200089302000893020008CC
:1000C00093020008930200089302000893020008BC
:1000D00093020008930200089302000893020008AC
:1000E000930200089302000893020008930200089C
:1000F000930200089302000893020008930200088C
:10010000930200089302000893020008930200087B
:10011000930200089302000893020008930200086B
:10012000930200089302000893020008930200085B
:10013000930200089302000893020008930200084B
:10014000930200089302000893020008930200083B
:10015000930200089302000893020008930200082B
:10016000930200089302000893020008930200081B
:1001700093020008930200089302000800000000A8
:10018000930200089302000800F002F800F04AF819
:100190000AA090E8000C82448344AAF10107DA45E2
:1001A00001D100F03FF8AFF2090EBAE80F0013F0EA
:1001B000010F18BFFB1A43F001031847040F00009A
:1001C000240F0000103A24BF78C878C1FAD852072B
:1001D00024BF30C830C144BF04680C6070470000C1
:1001E0000023002400250026103A28BF78C1FBD840
:1001F000520728BF30C148BF0B607047642900F028
:10020000AD80002070471FB500F0ECFE00F070FAE2
:1002100004000020002100F0CFFE401C60601FBDE4
:1002200010B510BD00F03EFA1146FFF7ECFF00F0EC
:100230008DFC00F06FFA03B4FFF7F2FF03BC00F08F
:10024000B3FA000016481749174B99423CBF50F8C3
:10025000042B41F8042BF8D314494FF000028B42D1
:1002600038BF43F8042BFAD3DFF84400016841F4A7
:1002700070010160BFF34F8FBFF36F8F0D480047D0
:10028000FEE7FEE7FEE7FEE7FEE7FEE7FEE7FEE746
:10029000FEE7FEE708480949094A0A4B7047000093
:1002A000F0110008000000201C01002018080020A8
:1002B00088ED00E0890100081802002018080020DD
:1002C00018040020180400200FB41CB5084B06AA1F
:1002D0007B4469460090059800F035F904460020FB
:1002E000694600F043F920461CBC5DF814FB000091
:1002F000990200002DE9F0410E46044600202062DC
:100300002046E168884730B3252805D0D4E901218B
:100310009047206A401CF2E7E168204600278847A2
:10032000050018D0A5F14100192802D820354FF456
:1003300000673246294620462760FFF75FFF40B13D
:10034000012804D0F61D26F007060836D8E7361D2A
:10035000D6E72846DAE7206ABDE8F0812DE9F041CA
:100360000646002410687529314616A510D0AFF353
:100370000080002802DA404213A507E031688A07AE
:1003800001D512A502E0490704D511A5012401E019
:10039000AFF3008000210A2206F1240709E0B0FB38
:1003A000F2FCB0FBF2F302FB1C003030785418462C
:1003B000491C0028F3D123462A463046BDE8F041C7
:1003C00000F062B8000000002D0000002B000000CB
:1003D0002000000070B5064600F052F8046805469B
:1003E00030460A22002100F0C6F82C6070BD10B51E
:1003F000431C02E010F8011B71B18107FAD14FF0E4
:10040000013202C88C1A8C4314EAC211F9D0C01A06
:100410000A0603D0C01E10BDC01A10BD0A0401D0C8
:10042000801E10BD0902FCD0401E10BD4FF000021E
:1004300000B5134694469646203922BFA0E80C50DA
:10044000A0E80C50B1F12001BFF4F7AF090728BFB5
:10045000A0E80C5048BF0CC05DF804EB890028BF31
:1004600040F8042B08BF704748BF20F8022B11F05A
:10047000804F18BF00F8012B7047704770477047D6
:1004800000487047B40100202DE9F0470D46994619
:100490009246044600F124080168880604D5E06904
:1004A00021F01001216000E00120A84201DD471B7E
:1004B00000E00027A1697A1902EB0900081AA0617F
:1004C0002078C00602D42046AFF30080002608E062
:1004D000D4E901211AF806009047206A401C761CD6
:1004E00020624E45F4DB2078C0060AD52046AFF3E3
:1004F000008006E0D4E9012130209047206A401CAA
:100500002062381EA7F10107F4DC07E0D4E90121DD
:1005100018F805009047206A401C2062281EA5F1AB
:100520000105F3DC2046AFF300802078000602D5F9
:100530000220BDE8F0870120FBE7000001694A1CAA
:1005400002610878704700B58FB0CDE90131002114
:10055000059105497944CDE9031011466846FFF736
:10056000C9FE0FB000BD0000E5FFFFFF0A6802F8FA
:10057000010B0A6070472DE9F04791460F4680460F
:100580000446002614F8015B2DB100F031F8006834
:10059000405DC007F6D12B2D02D02D2D18D0641E42
:1005A0004A463946204600F02BF827B13968A14267
:1005B00001D1C7F800804FF0020471050BD540420D
:1005C000002803DDFFF75CFF0460A007BDE8F087AB
:1005D00046F48066E4E70028F8DAFFF751FF04608C
:1005E0006FF00040F2E7000000487047B4010020BF
:1005F00010B500F07DF8001D10BD00BFBD09000062
:100600002DE9F05F824615468B4600270AF101046A
:10061000B9460078302801D09DB113E014F8010BE1
:100620000127782803D0582801D045B10AE00DB140
:10063000102D07D1002714F8010B102502E0082522
:1006400000E00A250026B0460EE005FB080005FB89
:1006500006F101271FFA80F801EB1046B6F5803F3E
:1006600000D3B94614F8010B294600F045F80028DC
:10067000EBDABBF1000F05D00FB1641E00E0544669
:10068000CBF80040B9F1000F06D0FFF7F9FE0221C8
:100690000160C81E00F003B848EA0640FAE730BC23
:1006A000BDE8C09F7546FFF79FFFAE46050069464F
:1006B000534620F00700854618B020B5FFF7EAFD45
:1006C000BDE820404FF000064FF000074FF0000853
:1006D0004FF0000B21F00701AC46ACE8C009ACE8D4
:1006E000C009ACE8C009ACE8C0098D4670470000FD
:1006F00000487047D40100203A2800D2303820F05A
:100700002002412A01D3A2F13700884201D34FF0E1
:10071000FF30704710B50446AFF300802046BDE8B7
:100720001040FFF788BD00004FF0013C50F8042B4B
:1007300051F8043B9A4221D1A2EB0C03934313EAF4
:10074000CC1317D150F8042B51F8043B9A4215D121
:10075000A2EB0C03934313EACC130BD150F8042BF8
:1007600051F8043B9A4209D1A2EB0C03934313EADC
:10077000CC13DBD04FF00000704700BFD01A01BA95
:10078000B1FA81F101F0180122FA01F0CB40C1F178
:100790002001DBB2C0B2C01A2CFA01F3D11A914386
:1007A00011EAC311E6D1704701491820ABBEFEE73C
:1007B00026000200704700005E49096821F0070129
:1007C0005C4A11601146096841F0020111605A4902
:1007D000096841F48071584A116000BF56490968A0
:1007E00001F480610029F9D010205349496821F0B3
:1007F000F851514A51601146496841EA006151601F
:100800001146096821F08071116000BF4A490968EA
:1008100001F00071B1F1007FF8D04749C96821F0BB
:100820000301454AD1601146C96841F00201D16017
:100830001146C96821F4FE4141F4A051D16011462E
:10084000C96821F0700141F01001D1601146C968FA
:1008500021F0C061D1601146C96841F08071D1605A
:100860001146096841F08071116000BF3249096882
:1008700001F000710029F9D02F49896821F00301A6
:100880002D4A91601146896841F00301916000BFD3
:100890002949896801F00C010C29F9D12649896898
:1008A00021F0F001244A91601146896821F4E06149
:1008B00091601146896821F4605191601146096880
:1008C00021F08061116000BF1B49096801F080615F
:1008D000B1F1806FF8D01849096921F4FE41164A38
:1008E00011611146096941F4C0511161114609694C
:1008F00041F4003111611146096941F480311161FF
:100900001146096841F08061116000BF0A49096819
:1009100001F080610029F9D007498831096821F484
:100920004001054AC2F888101146096E41F40011D1
:100930001166704700200240001002401A48C06C47
:1009400040F008001849C8641848006820F4705046
:10095000164908600846006840F4205008601348B3
:100960002030006840F0EE601049203108600F48E8
:100970000830006840F470500C4908310860081DC8
:10098000006820F47050091D08600846006840F4B3
:10099000A05008600548001D006820F06000034971
:1009A000091D08607047000000100240000C00485C
:1009B00000B50D48806D40F400300B4988650A4849
:1009C0008830006820F00C00C1F888000846D0F894
:1009D000880040F00400C1F88800FFF7AFFF03482B
:1009E00000F010F800BD000000100240004400407C
:1009F000642242430723B2FBF3F100BF4A1E111EDB
:100A0000FCD17047016821F001010160016821F00B
:100A100010210160016821F400410160416821F466
:100A20004051416042F28D01C160016841F00C010A
:100A300001601E4988421BD1016841F0200101601C
:100A4000016821F040010160016821F0100101609E
:100A5000016821F080010160016821F4807101606A
:100A6000016821F040010160016821F0010101608D
:100A70000F49884209D1016A41F0400101620D49E4
:100A8000096841F0C0010B4A1160016841F00101A1
:100A9000016000BFC16901F400110029FAD000BF54
:100AA000C16901F480010029FAD07047004C004070
:100AB0000044004008380140014600BFC86900F00A
:100AC00020000028FAD0888CC0B27047F0B50446E8
:100AD0000E46174600250CE000BFE06900F08000DC
:100AE0000028FAD0705D20854FF49670FFF780FFE4
:100AF0006D1CBD42F0D300BFE06900F0400000284B
:100B0000FAD0E06920F04000E061F0BD0E48C06C12
:100B100040F001000C49C8644FF09040006820F09C
:100B200003004FF0904108600846006840F0020062
:100B300008600846006A40F00100086208468069C3
:100B400040F4003088617047001002402DE9F04FFA
:100B5000EBB000264FF4CA7106A8FFF767FC00242B
:100B6000A346002500200490039002900190814646
:100B70008246FFF721FEFFF71BFFFFF7C7FF00F0DC
:100B8000E9F900F067F900287ED000BF7848FFF748
:100B90002EFC0246764900907648FFF797FF75488D
:100BA000FFF78AFF8046B8F14E0F02D0B8F16E0F02
:100BB00046D100BF7048FFF71AFC02466E4900900C
:100BC0006C48FFF783FF13E06A48FFF775FF07469D
:100BD0000D2F03D10020694988550AE067488755E1
:100BE00010F80680811901226248FFF76FFF761C1A
:100BF000EAE700BF6148FFF7EDFB04460026322C10
:100C0000D8DB42F2DE608442D4DC22465CA1644838
:100C1000FFF75AFB059062495648059AFFF756FFC1
:100C200000BF04F164025FA15D48FFF74DFB059032
:100C30005B495048059AFFF749FF04F1640B03E054
:100C400040F2B63440F21A4B4FF0000A2EE000BFDB
:100C50004FF08040006900F002000028F8D04FF00B
:100C60008040406B039000BF4FF08040006900F06F
:100C700002000028F8D04FF08040406B01900399AB
:100C80000198A0EB010900E06DE0D9450CDAA1451F
:100C90000ADDA9EB040006A951F82000401CA9EBCD
:100CA000040106AA42F821000AF1010ABAF57A7F86
:100CB000CDDB4FF0000A43A13948049AFFF704FB4B
:100CC000059037492B48059AFFF700FF002518E0EB
:100CD00006A850F8250098B10AF1010A06A850F8B4
:100CE0002530621945A12E48FFF7EEFA0590002045
:100CF00006A941F825002A491E48059AFFF7E6FE95
:100D00006D1C642DE4DBBAF1000F0ED14649244876
:100D1000FFF7DAFA059022491648059AFFF7D6FE42
:100D20001448FFF7C9FE80460CE04048FFF75FFB20
:100D300002463E4900900F48FFF7C8FE0D48FFF7F6
:100D4000BBFE8046B8F1790F3FF420AFB8F1590FE0
:100D5000FAD037A11248FFF7B7FA059010490548B5
:100D6000059AFFF7B3FE00206BB000F06FB80000EB
:100D700057000020004400400000002080010020B7
:100D8000546865206C6F776572206C696D6974209A
:100D900076616C7565206973203A2025640D0A0020
:100DA0001C010020546865207570706572206C69A4
:100DB0006D69742076616C7565206973203A202511
:100DC000640D0A000D0A20486973746F6772616DC3
:100DD000200D0A204275636B65742854696D652087
:100DE000506572696F6420696E2075532920202038
:100DF0002D2020202020436F756E74000D0A2020C6
:100E00002020202025642020202020202020202099
:100E10002020202020202020202D202020202020C5
:100E200020256420000000004C100008C3000020B2
:100E30005465726D696E6174696E672074686520AF
:100E400070726F6772616D0D0A00000030BCBDE802
:100E5000C08F00002DE9F04100260025002700BFCB
:100E600000E06D1C22488542FBDB4006466A0769AC
:100E700000BF4FF08040406A801B1D498842F8D374
:100E80004806006900F0020060B11AA12748FFF788
:100E90001BFA8046424625492548FFF717FE0120E8
:100EA000BDE8F08123492148FFF70EFA804642460B
:100EB0001E491F48FFF70AFE1D48FFF7FDFD0446C7
:100EC000792C01D0592C00D1CAE76E2C01D04E2CC0
:100ED0000BD119A11548FFF7F7F98046424613498F
:100EE0001348FFF7F3FD0020DAE70120D8E7000000
:100EF000A0860100504F53542074657374206973A9
:100F0000207375636365737366756C2E204E6F77FF
:100F10002077652063616E20676F20746F20706C8E
:100F20006179206D6F64650D0A0000001C010020CE
:100F300000440040F00F00085465726D696E6174E2
:100F4000696E67207468652070726F6772616D0DDD
:100F50000A0000001748806D40F0010015498865BF
:100F60008804406B4FF6FF7108434FF0804148639F
:100F70000846806A40F04F0088620846406940F0A9
:100F8000010048610846006A20F001000862012063
:100F900088618007806920F0700088610846006AD7
:100FA00040F0010008620846006840F00100086057
:100FB000704700000010024010B500290AD00878E0
:100FC000002807D005487844FFF7AEFB002801D081
:100FD000002010BD0248784410BD00001A01000036
:100FE000120100004FF04070E1EE100A704700005F
:100FF000504F535420746573742068617320666188
:10100000696C65642E20646F20796F752077616E3E
:101010007420746F2074727920616761696E206F2B
:101020007220676F2C205072657373205920746F83
:101030002074727920616761696E206F72204E2082
:10104000746F20656E642E200D0A00000D0A4E6F2D
:101050002076616C756573206C69652077697468AA
:10106000696E2074686520676976656E2072616EAE
:101070006765206F6620796F7572732E20446F202C
:10108000796F752077616E74206F7420706C617950
:1010900020616761696E3F2050726573732059202B
:1010A000696620796F752077616E7420746F207087
:1010B0006C617920616761696E2E0D0A0000000085
:1010C000F0110008000000201C010000C40100080D
:1010D0000C1300081C010020FC060000E0010008C1
:1010E0001001000043000000F8FFFFFF00404040F7
:1010F00040404040404041414141414040404040EB
:101100004040404040404040404040404005020296
:101110000202020202020202020202020220202055
:1011200020202020202020020202020202029090B1
:1011300090909090101010101010101010101010AF
:101140001010101010101010020202020202888803
:10115000888888880808080808080808080808080F
:1011600008080808080808080202020240000000F7
:10117000000000000000000000000000000000006F
:10118000000000000000000000000000000000005F
:10119000000000000000000000000000000000004F
:1011A000000000000000000000000000000000003F
:1011B000000000000000000000000000000000002F
:1011C000000000000000000000000000000000001F
:1011D000000000000000000000000000000000000F
:1011E00000000000000000000000000000000000FF
:1011F000656E74657220746865206C6F7765722007
:101200006C696D69742076616C75652077697468A6
:10121000696E2072616E6765206F662035302074BC
:101220006F20393935300D0A0054686520757070AB
:101230006572206C696D69742076616C75652077C4
:10124000696C6C20626500446F20796F752077614E
:101250006E7420746F20706C6179207769746820D7
:101260007468652064656661756C74206C6F776561
:101270007220616E642075707065722076616C7585
:101280006573206F662039353020616E64203130FF
:1012900035302E205072657373205920696620798D
:1012A000657320616E64204E206966206E6F2E206B
:1012B0000D0A000D0A546865206F757470757420EE
:1012C000697320676976656E2061626F76652E208E
:1012D000446F20796F752077616E7420746F207071
:1012E0006C617920616761696E3F2050726573732C
:1012F000205920696620796F752077616E7420749B
:0C1300006F20706C61790D0A0000000085
:040000050800018965
:00000001FF
